:02000000FA2ADA
:10000800FF00030E83018316AA000A08A8008A01CC
:1000180070088312A0000C1C35280C103C308F008F
:10002800B0308E008316A90A0530290203181D284E
:1000380058280130A700A901A50A3C302502031859
:1000480026285828A501A20A3C30220203182D2888
:100058005828A201A30A1830230203183428582864
:10006800A3010B1C582883128618472803308316CF
:10007800240203184328A40A831210104728831661
:10008800A4018312101406194D2883162408B200FF
:100098009F2283128619542883162408B200CB2283
:1000A80083160130A7000B1083122008F000831676
:0E00B80028088A002A0E8300FF0E7F0E090022
:0600C6000000000008002C
:0E00CC00213083120313FD00FD0B6A2808008B
:1000DA000F3083120313FC004730FD00FD0B732819
:0A00EA00FC0B732800000000080062
:1000F40083160313B11B8128831288128328831269
:1001040088168316311B8928831208128B288312C0
:1001140008168316B11A9128831288119328831222
:1001240088158316311A9928831208119B28831283
:10013400081583162618A12883120814A3288312ED
:1001440008108814632088108316B119AC28831210
:100154008812AE288312881683163119B4288312A4
:100164000812B628831208168316B118BC28831205
:100174008811BE288312881583163118C428831267
:100184000811C6288312081583162618CC28831252
:100194000814CE288312081088146320881083164C
:0C01A400261CD6286D20D72866200800F5
:1001B0008316031326103008B1007A208316261404
:0201C000080035
:1001C200F328803083160313AC000629C030AC003C
:1001D20006299430AC000629D430AC0006298030C0
:1001E200AC000629831603132C08013A0319E228EE
:1001F2002C08023A0319E7282C08033A0319EA28C3
:100202002C08043A0319ED28F0282D03F0002C08DD
:10021200F0077008AC007008B1007A20831626102F
:10022200AF012F082E0784000008031920292F0888
:100232002E0784000008B000D820AF0A1229261425
:020242000800B2
:1002440083120313F8010830FC00700DF80D7408D4
:10025400F80203182F29F8070310F00DFC0B2729C7
:02026400080090
:0E0266008316031321088A0020088200080076
:10027400831603138614061586150E3096008B1507
:0802840003178801890108003D
:10028C000A3083120313F40083162308F000222192
:10029C000A30F40022217808F00030307007BB00DF
:1002AC000A30F40083162308F00022217808F000AD
:1002BC0030307007BC000A30F40083162208F000BE
:1002CC0022210A30F40022217808F0003030700727
:1002DC00BE000A30F40083162208F00022217808B0
:1002EC00F00030307007BF000A30F4008316250888
:1002FC00F00022210A30F40022217808F00030307E
:10030C007007C1000A30F40083162508F000222182
:10031C007808F00030307007C20001308316AC0052
:10032C000130AD003B30AE00E120BC290230AC0006
:10033C000130AD004430AE00E120CC290230AC00DD
:10034C000130AD005C30AE00E120CC290230AC00B5
:10035C000130AD006630AE00E120CC290230AC009B
:10036C000130AD004E30AE00E120CC292408003A1B
:10037C0003199C292408013A0319A4292408023AD8
:0E038C000319AC292408033A0319B429080008
:10039A00013083160313AC000730AD003730AE00CE
:1003AA00E1200230AC000130AD002130AE00E12086
:1003BA00AB0108302B020318F2291830B1007A2059
:1003CA008230FC00DD30FD00FD0BE929FC0BE92938
:1003DA00000000008316AB0ADE29AB0108302B02AD
:1003EA000318072A1C30B1007A208230FC00DD3065
:1003FA00FD00FD0BFE29FC0BFE2900000000831600
:10040A00AB0AF3290130B1007A208316AB01083018
:10041A002B020318322A0130AC000830AD005830E4
:10042A00AE00E1200230FB003830FC00AD30FD00A8
:10043A00FD0B1D2AFC0B1D2AFB0B1D2A0130B100E6
:10044A007A201A30FC00F830FD00FD0B2A2AFC0B3A
:10045A002A2A00008316AB0A0C2A0130B1007A203E
:02046A00080088
:10046C0083160313881008100811881108128812BB
:10047C0083128810081088120812881108116D2038
:10048C006D206D20881508158814632088106D2048
:10049C008814632088106D208814632088106D20C8
:1004AC0008118814632088106D208814632088102C
:1004BC00881188168814632088106D2088120815FE
:1004CC0088146320881008118814632088106D200C
:1004DC0088146320881008158814632088106D20F8
:1004EC0008118814632088108816081688150815BA
:0E04FC008814632088106D20831626140800D3
:10050A0031308312031390000C103C308F00B0304E
:0C051A008E0083160C14C0308B0008000B
:1005260033218A110A128000840AA00A0319A10A3B
:08053600F003031D932A0800E5
:10053E00BB2A18308316031323020318A82AA30A12
:10054E00A92AA301CA2A3C3022020318B02AA20A01
:10055E00B12AA201CA2A3C3025020318B82AA50ADC
:10056E00B92AA501CA2ACA2A831603133208013AE8
:10057E000319A02A3208023A0319AA2A3208033AAA
:08058E000319B22ABA2A080081
:10059600EA2A831603132308003C0318D42AA3036C
:1005A600D62A1730A300F92A2208003C0318DD2AB0
:1005B600A203DF2A3B30A200F92A2508003C0318D3
:1005C600E62AA503E82A3B30A500F92AF92A83166C
:1005D60003133208013A0319CC2A3208023A0319E6
:0E05E600D72A3208033A0319E02AE92A08004E
:1005F400622336220130B1007A200C308316B10018
:100604007A20CD2185223A214621270803190C2B73
:08061400A7014621072B0D2B65
:1006C400213084004F3083120313F000133083165B
:0A06D400A0000330A10093220800EB
:1006260044346F346E342734743420347234653471
:100636007034653461347434203479346F347534ED
:0C0646007234733465346C346634003454
:080652004434523459340034E1
:10065A00683468343A346D346D343A3473347334EC
:02066A0000345A
:10066C0020342034203420342034203420342034DE
:04067C0020340034F2
:1006800020342034203420342034203420345E348C
:0406900020340034DE
:0806940044345234593400349F
:10069C0020345E3420342034203420342034203470
:0406AC0020340034C2
:1006B00020342034203420345E342034203420345C
:0406C00020340034AE
:04400E00F22F000786
:00000001FF
